{
  "contractName": "Voting",
  "abi": [
    {
      "inputs": [
        {
          "internalType": "string[]",
          "name": "candidateNames",
          "type": "string[]"
        }
      ],
      "stateMutability": "nonpayable",
      "type": "constructor"
    },
    {
      "anonymous": false,
      "inputs": [
        {
          "indexed": true,
          "internalType": "address",
          "name": "voter",
          "type": "address"
        },
        {
          "indexed": true,
          "internalType": "uint256",
          "name": "candidateIndex",
          "type": "uint256"
        }
      ],
      "name": "VoteCast",
      "type": "event"
    },
    {
      "inputs": [
        {
          "internalType": "uint256",
          "name": "",
          "type": "uint256"
        }
      ],
      "name": "candidates",
      "outputs": [
        {
          "internalType": "string",
          "name": "name",
          "type": "string"
        },
        {
          "internalType": "uint256",
          "name": "voteCount",
          "type": "uint256"
        }
      ],
      "stateMutability": "view",
      "type": "function",
      "constant": true
    },
    {
      "inputs": [
        {
          "internalType": "address",
          "name": "",
          "type": "address"
        }
      ],
      "name": "hasVoted",
      "outputs": [
        {
          "internalType": "bool",
          "name": "",
          "type": "bool"
        }
      ],
      "stateMutability": "view",
      "type": "function",
      "constant": true
    },
    {
      "inputs": [],
      "name": "owner",
      "outputs": [
        {
          "internalType": "address",
          "name": "",
          "type": "address"
        }
      ],
      "stateMutability": "view",
      "type": "function",
      "constant": true
    },
    {
      "inputs": [
        {
          "internalType": "uint256",
          "name": "candidateIndex",
          "type": "uint256"
        }
      ],
      "name": "vote",
      "outputs": [],
      "stateMutability": "nonpayable",
      "type": "function"
    },
    {
      "inputs": [],
      "name": "getNumOfCandidates",
      "outputs": [
        {
          "internalType": "uint256",
          "name": "",
          "type": "uint256"
        }
      ],
      "stateMutability": "view",
      "type": "function",
      "constant": true
    },
    {
      "inputs": [],
      "name": "totalCandidates",
      "outputs": [
        {
          "internalType": "uint256",
          "name": "",
          "type": "uint256"
        }
      ],
      "stateMutability": "view",
      "type": "function",
      "constant": true
    }
  ],
  "bytecode": "0x608060405234801561001057600080fd5b506040516107ac3803806107ac83398101604081905261002f91610177565b600080546001600160a01b031916331781555b81518110156100d7576002604051806040016040528084848151811061007857634e487b7160e01b600052603260045260246000fd5b60209081029190910181015182526000918101829052835460018101855593825290819020825180519394600202909101926100b792849201906100de565b5060208201518160010155505080806100cf906102e9565b915050610042565b5050610326565b8280546100ea906102ae565b90600052602060002090601f01602090048101928261010c5760008555610152565b82601f1061012557805160ff1916838001178555610152565b82800160010185558215610152579182015b82811115610152578251825591602001919060010190610137565b5061015e929150610162565b5090565b5b8082111561015e5760008155600101610163565b60006020808385031215610189578182fd5b82516001600160401b038082111561019f578384fd5b8185019150601f86818401126101b3578485fd5b8251828111156101c5576101c5610310565b6101d28586830201610285565b81815285810190858701885b8481101561027557815188018c603f8201126101f8578a8bfd5b898101518881111561020c5761020c610310565b61021d818901601f19168c01610285565b81815260408f81848601011115610232578d8efd5b8d5b8381101561024f578481018201518382018f01528d01610234565b8381111561025f578e8e85850101525b50508652505092880192908801906001016101de565b50909a9950505050505050505050565b6040518181016001600160401b03811182821017156102a6576102a6610310565b604052919050565b6002810460018216806102c257607f821691505b602082108114156102e357634e487b7160e01b600052602260045260246000fd5b50919050565b600060001982141561030957634e487b7160e01b81526011600452602481fd5b5060010190565b634e487b7160e01b600052604160045260246000fd5b610477806103356000396000f3fe608060405234801561001057600080fd5b50600436106100625760003560e01c80630121b93f1461006757806309eef43e1461007c5780633477ee2e146100a55780633866965c146100c65780638da5cb5b146100db578063e8685ba1146100c6575b600080fd5b61007a6100753660046102f0565b6100f0565b005b61008f61008a3660046102c2565b6101dc565b60405161009c919061031c565b60405180910390f35b6100b86100b33660046102f0565b6101f1565b60405161009c929190610327565b6100ce6102ad565b60405161009c91906103d6565b6100e36102b3565b60405161009c9190610308565b3360009081526001602052604090205460ff16156101295760405162461bcd60e51b815260040161012090610382565b60405180910390fd5b600254811061014a5760405162461bcd60e51b8152600401610120906103aa565b336000908152600160208190526040909120805460ff19169091179055600280548290811061018957634e487b7160e01b600052603260045260246000fd5b6000918252602082206001600290920201018054916101a78361041a565b9091555050604051819033907fa36cc2bebb74db33e9f88110a07ef56e1b31b24b4c4f51b54b1664266e29f45b90600090a350565b60016020526000908152604090205460ff1681565b6002818154811061020157600080fd5b9060005260206000209060020201600091509050806000018054610224906103df565b80601f0160208091040260200160405190810160405280929190818152602001828054610250906103df565b801561029d5780601f106102725761010080835404028352916020019161029d565b820191906000526020600020905b81548152906001019060200180831161028057829003601f168201915b5050505050908060010154905082565b60025490565b6000546001600160a01b031681565b6000602082840312156102d3578081fd5b81356001600160a01b03811681146102e9578182fd5b9392505050565b600060208284031215610301578081fd5b5035919050565b6001600160a01b0391909116815260200190565b901515815260200190565b6000604082528351806040840152815b818110156103545760208187018101516060868401015201610337565b818111156103655782606083860101525b50602083019390935250601f91909101601f191601606001919050565b6020808252600e908201526d20b63932b0b23c903b37ba32b21760911b604082015260600190565b60208082526012908201527124b73b30b634b21031b0b73234b230ba329760711b604082015260600190565b90815260200190565b6002810460018216806103f357607f821691505b6020821081141561041457634e487b7160e01b600052602260045260246000fd5b50919050565b600060001982141561043a57634e487b7160e01b81526011600452602481fd5b506001019056fea2646970667358221220851e18f57d1b6525405ec78c634ec4cd01bd5230e6da6f889fe150341a0e682c64736f6c63430008000033",
  "immutableReferences": {},
  "source": "// SPDX-License-Identifier: MIT\r\npragma solidity ^0.8.0;\r\n\r\ncontract Voting {\r\n    struct Candidate {\r\n        string name;\r\n        uint voteCount;\r\n    }\r\n\r\n    address public owner;\r\n    mapping(address => bool) public hasVoted;\r\n    Candidate[] public candidates;\r\n\r\n    // Declare the VoteCast event\r\n    event VoteCast(address indexed voter, uint indexed candidateIndex);\r\n\r\n    constructor(string[] memory candidateNames) {\r\n        owner = msg.sender;\r\n        for (uint i = 0; i < candidateNames.length; i++) {\r\n            candidates.push(Candidate(candidateNames[i], 0));\r\n        }\r\n    }\r\n\r\n    function vote(uint candidateIndex) public {\r\n        require(!hasVoted[msg.sender], \"Already voted.\");\r\n        require(candidateIndex < candidates.length, \"Invalid candidate.\");\r\n        hasVoted[msg.sender] = true;\r\n        candidates[candidateIndex].voteCount++;\r\n\r\n        // Emit the VoteCast event after the vote\r\n        emit VoteCast(msg.sender, candidateIndex);\r\n    }\r\n\r\n    function getNumOfCandidates() public view returns (uint) {\r\n        return candidates.length;\r\n    }\r\n\r\n    function totalCandidates() public view returns (uint) {\r\n        return candidates.length;\r\n    }\r\n}\r\n",
  "sourcePath": "C:\\Users\\LIBERTY CORPORATION\\Desktop\\voting-dapp\\contracts\\Voting.sol",
  "compiler": {
    "name": "solc",
    "version": "0.8.0+commit.c7dfd78e.Emscripten.clang"
  },
  "schemaVersion": "3.4.16",
  "updatedAt": "2025-04-24T01:55:20.337Z",
  "networkType": "ethereum",
  "devdoc": {
    "kind": "dev",
    "methods": {},
    "version": 1
  },
  "userdoc": {
    "kind": "user",
    "methods": {},
    "version": 1
  }
}